{
  "_format": "hh-sol-artifact-1",
  "contractName": "BigIncGenesis",
  "sourceName": "contracts/BigIncGenesis.sol",
  "abi": [
    {
      "inputs": [
        {
          "internalType": "address",
          "name": "_usdtAddress",
          "type": "address"
        },
        {
          "internalType": "address",
          "name": "_usdcAddress",
          "type": "address"
        }
      ],
      "stateMutability": "nonpayable",
      "type": "constructor"
    },
    {
      "inputs": [
        {
          "internalType": "address",
          "name": "target",
          "type": "address"
        }
      ],
      "name": "AddressEmptyCode",
      "type": "error"
    },
    {
      "inputs": [
        {
          "internalType": "address",
          "name": "account",
          "type": "address"
        }
      ],
      "name": "AddressInsufficientBalance",
      "type": "error"
    },
    {
      "inputs": [],
      "name": "EnforcedPause",
      "type": "error"
    },
    {
      "inputs": [],
      "name": "ExpectedPause",
      "type": "error"
    },
    {
      "inputs": [],
      "name": "FailedInnerCall",
      "type": "error"
    },
    {
      "inputs": [
        {
          "internalType": "address",
          "name": "owner",
          "type": "address"
        }
      ],
      "name": "OwnableInvalidOwner",
      "type": "error"
    },
    {
      "inputs": [
        {
          "internalType": "address",
          "name": "account",
          "type": "address"
        }
      ],
      "name": "OwnableUnauthorizedAccount",
      "type": "error"
    },
    {
      "inputs": [],
      "name": "ReentrancyGuardReentrantCall",
      "type": "error"
    },
    {
      "inputs": [
        {
          "internalType": "address",
          "name": "token",
          "type": "address"
        }
      ],
      "name": "SafeERC20FailedOperation",
      "type": "error"
    },
    {
      "anonymous": false,
      "inputs": [],
      "name": "AllSharesSold",
      "type": "event"
    },
    {
      "anonymous": false,
      "inputs": [
        {
          "indexed": true,
          "internalType": "address",
          "name": "donor",
          "type": "address"
        },
        {
          "indexed": false,
          "internalType": "uint256",
          "name": "amount",
          "type": "uint256"
        }
      ],
      "name": "Donate",
      "type": "event"
    },
    {
      "anonymous": false,
      "inputs": [
        {
          "indexed": true,
          "internalType": "address",
          "name": "previousOwner",
          "type": "address"
        },
        {
          "indexed": true,
          "internalType": "address",
          "name": "newOwner",
          "type": "address"
        }
      ],
      "name": "OwnershipTransferred",
      "type": "event"
    },
    {
      "anonymous": false,
      "inputs": [
        {
          "indexed": false,
          "internalType": "address",
          "name": "account",
          "type": "address"
        }
      ],
      "name": "Paused",
      "type": "event"
    },
    {
      "anonymous": false,
      "inputs": [],
      "name": "PresaleEnded",
      "type": "event"
    },
    {
      "anonymous": false,
      "inputs": [
        {
          "indexed": true,
          "internalType": "address",
          "name": "buyer",
          "type": "address"
        },
        {
          "indexed": false,
          "internalType": "uint256",
          "name": "sharesBought",
          "type": "uint256"
        },
        {
          "indexed": false,
          "internalType": "uint256",
          "name": "amount",
          "type": "uint256"
        }
      ],
      "name": "ShareMinted",
      "type": "event"
    },
    {
      "anonymous": false,
      "inputs": [
        {
          "indexed": true,
          "internalType": "address",
          "name": "shareholder",
          "type": "address"
        },
        {
          "indexed": false,
          "internalType": "uint256",
          "name": "shareAmount",
          "type": "uint256"
        }
      ],
      "name": "SharesSeized",
      "type": "event"
    },
    {
      "anonymous": false,
      "inputs": [
        {
          "indexed": true,
          "internalType": "address",
          "name": "from",
          "type": "address"
        },
        {
          "indexed": true,
          "internalType": "address",
          "name": "to",
          "type": "address"
        },
        {
          "indexed": false,
          "internalType": "uint256",
          "name": "shareAmount",
          "type": "uint256"
        }
      ],
      "name": "TransferShare",
      "type": "event"
    },
    {
      "anonymous": false,
      "inputs": [
        {
          "indexed": false,
          "internalType": "address",
          "name": "account",
          "type": "address"
        }
      ],
      "name": "Unpaused",
      "type": "event"
    },
    {
      "inputs": [],
      "name": "availableShares",
      "outputs": [
        {
          "internalType": "uint256",
          "name": "",
          "type": "uint256"
        }
      ],
      "stateMutability": "view",
      "type": "function"
    },
    {
      "inputs": [],
      "name": "donate",
      "outputs": [],
      "stateMutability": "payable",
      "type": "function"
    },
    {
      "inputs": [],
      "name": "getAvailableShares",
      "outputs": [
        {
          "internalType": "uint256",
          "name": "",
          "type": "uint256"
        }
      ],
      "stateMutability": "view",
      "type": "function"
    },
    {
      "inputs": [],
      "name": "getShareholders",
      "outputs": [
        {
          "internalType": "address[]",
          "name": "",
          "type": "address[]"
        }
      ],
      "stateMutability": "view",
      "type": "function"
    },
    {
      "inputs": [
        {
          "internalType": "address",
          "name": "addr",
          "type": "address"
        }
      ],
      "name": "getShares",
      "outputs": [
        {
          "internalType": "uint256",
          "name": "",
          "type": "uint256"
        }
      ],
      "stateMutability": "view",
      "type": "function"
    },
    {
      "inputs": [],
      "name": "isPresaleActive",
      "outputs": [
        {
          "internalType": "bool",
          "name": "",
          "type": "bool"
        }
      ],
      "stateMutability": "view",
      "type": "function"
    },
    {
      "inputs": [
        {
          "internalType": "address",
          "name": "",
          "type": "address"
        }
      ],
      "name": "isShareholder",
      "outputs": [
        {
          "internalType": "bool",
          "name": "",
          "type": "bool"
        }
      ],
      "stateMutability": "view",
      "type": "function"
    },
    {
      "inputs": [
        {
          "internalType": "address",
          "name": "tokenAddress",
          "type": "address"
        }
      ],
      "name": "mintShare",
      "outputs": [],
      "stateMutability": "nonpayable",
      "type": "function"
    },
    {
      "inputs": [],
      "name": "owner",
      "outputs": [
        {
          "internalType": "address",
          "name": "",
          "type": "address"
        }
      ],
      "stateMutability": "view",
      "type": "function"
    },
    {
      "inputs": [],
      "name": "pause",
      "outputs": [],
      "stateMutability": "nonpayable",
      "type": "function"
    },
    {
      "inputs": [],
      "name": "paused",
      "outputs": [
        {
          "internalType": "bool",
          "name": "",
          "type": "bool"
        }
      ],
      "stateMutability": "view",
      "type": "function"
    },
    {
      "inputs": [],
      "name": "presaleShareValuation",
      "outputs": [
        {
          "internalType": "uint256",
          "name": "",
          "type": "uint256"
        }
      ],
      "stateMutability": "view",
      "type": "function"
    },
    {
      "inputs": [],
      "name": "presaleShares",
      "outputs": [
        {
          "internalType": "uint256",
          "name": "",
          "type": "uint256"
        }
      ],
      "stateMutability": "view",
      "type": "function"
    },
    {
      "inputs": [],
      "name": "renounceOwnership",
      "outputs": [],
      "stateMutability": "nonpayable",
      "type": "function"
    },
    {
      "inputs": [
        {
          "internalType": "address",
          "name": "shareholder",
          "type": "address"
        }
      ],
      "name": "seizeShares",
      "outputs": [],
      "stateMutability": "nonpayable",
      "type": "function"
    },
    {
      "inputs": [
        {
          "internalType": "uint256",
          "name": "",
          "type": "uint256"
        }
      ],
      "name": "shareholderAddresses",
      "outputs": [
        {
          "internalType": "address",
          "name": "",
          "type": "address"
        }
      ],
      "stateMutability": "view",
      "type": "function"
    },
    {
      "inputs": [
        {
          "internalType": "address",
          "name": "",
          "type": "address"
        }
      ],
      "name": "shareholders",
      "outputs": [
        {
          "internalType": "uint256",
          "name": "",
          "type": "uint256"
        }
      ],
      "stateMutability": "view",
      "type": "function"
    },
    {
      "inputs": [],
      "name": "sharesSold",
      "outputs": [
        {
          "internalType": "uint256",
          "name": "",
          "type": "uint256"
        }
      ],
      "stateMutability": "view",
      "type": "function"
    },
    {
      "inputs": [],
      "name": "totalShareValuation",
      "outputs": [
        {
          "internalType": "uint256",
          "name": "",
          "type": "uint256"
        }
      ],
      "stateMutability": "view",
      "type": "function"
    },
    {
      "inputs": [
        {
          "internalType": "address",
          "name": "newOwner",
          "type": "address"
        }
      ],
      "name": "transferOwnership",
      "outputs": [],
      "stateMutability": "nonpayable",
      "type": "function"
    },
    {
      "inputs": [
        {
          "internalType": "address",
          "name": "to",
          "type": "address"
        },
        {
          "internalType": "uint256",
          "name": "shareAmount",
          "type": "uint256"
        }
      ],
      "name": "transferShare",
      "outputs": [],
      "stateMutability": "nonpayable",
      "type": "function"
    },
    {
      "inputs": [],
      "name": "unpause",
      "outputs": [],
      "stateMutability": "nonpayable",
      "type": "function"
    },
    {
      "inputs": [],
      "name": "usdcAddress",
      "outputs": [
        {
          "internalType": "address",
          "name": "",
          "type": "address"
        }
      ],
      "stateMutability": "view",
      "type": "function"
    },
    {
      "inputs": [],
      "name": "usdtAddress",
      "outputs": [
        {
          "internalType": "address",
          "name": "",
          "type": "address"
        }
      ],
      "stateMutability": "view",
      "type": "function"
    },
    {
      "inputs": [
        {
          "internalType": "address",
          "name": "tokenAddress",
          "type": "address"
        },
        {
          "internalType": "uint256",
          "name": "amount",
          "type": "uint256"
        }
      ],
      "name": "withdraw",
      "outputs": [],
      "stateMutability": "nonpayable",
      "type": "function"
    }
  ],
  "bytecode": "0x6080604052649e53289000600655646a6fd89bc06007556301406f4060085560006009556304e33880600a556001600b60006101000a81548160ff0219169083151502179055503480156200005357600080fd5b5060405162002d3c38038062002d3c8339818101604052810190620000799190620003d3565b33600073ffffffffffffffffffffffffffffffffffffffff168173ffffffffffffffffffffffffffffffffffffffff1603620000ef5760006040517f1e4fbdf7000000000000000000000000000000000000000000000000000000008152600401620000e691906200042b565b60405180910390fd5b62000100816200027c60201b60201c565b50600180819055506000600260006101000a81548160ff02191690831515021790555081600460006101000a81548173ffffffffffffffffffffffffffffffffffffffff021916908373ffffffffffffffffffffffffffffffffffffffff16021790555080600560006101000a81548173ffffffffffffffffffffffffffffffffffffffff021916908373ffffffffffffffffffffffffffffffffffffffff1602179055506000630112a880905080600c6000620001c36200034060201b60201c565b73ffffffffffffffffffffffffffffffffffffffff1673ffffffffffffffffffffffffffffffffffffffff16815260200190815260200160002081905550600d620002136200034060201b60201c565b9080600181540180825580915050600190039060005260206000200160009091909190916101000a81548173ffffffffffffffffffffffffffffffffffffffff021916908373ffffffffffffffffffffffffffffffffffffffff16021790555050505062000448565b60008060009054906101000a900473ffffffffffffffffffffffffffffffffffffffff169050816000806101000a81548173ffffffffffffffffffffffffffffffffffffffff021916908373ffffffffffffffffffffffffffffffffffffffff1602179055508173ffffffffffffffffffffffffffffffffffffffff168173ffffffffffffffffffffffffffffffffffffffff167f8be0079c531659141344cd1fd0a4f28419497f9722a3daafe3b4186f6b6457e060405160405180910390a35050565b60008060009054906101000a900473ffffffffffffffffffffffffffffffffffffffff16905090565b600080fd5b600073ffffffffffffffffffffffffffffffffffffffff82169050919050565b60006200039b826200036e565b9050919050565b620003ad816200038e565b8114620003b957600080fd5b50565b600081519050620003cd81620003a2565b92915050565b60008060408385031215620003ed57620003ec62000369565b5b6000620003fd85828601620003bc565b92505060206200041085828601620003bc565b9150509250929050565b62000425816200038e565b82525050565b60006020820190506200044260008301846200041a565b92915050565b6128e480620004586000396000f3fe6080604052600436106101665760003560e01c8063817bc0cb116100d1578063b89a73cb1161008a578063f04da65b11610064578063f04da65b146104c5578063f2fde38b14610502578063f3fef3a31461052b578063ffe517bc1461055457610166565b8063b89a73cb14610453578063ed88c68e14610490578063eea5a1b11461049a57610166565b8063817bc0cb146103675780638456cb59146103925780638da5cb5b146103a95780639ab4a445146103d4578063a173f79e146103ff578063ac55c8381461042a57610166565b80635c3184dc116101235780635c3184dc146102695780635c975abb146102a657806360d938dc146102d15780637108d4eb146102fc578063715018a61461032557806374da65171461033c57610166565b806302d454571461016b57806312e868be14610196578063192fc516146101bf5780633f4ba83a146101ea57806341ca641e146102015780635c2930ad1461022c575b600080fd5b34801561017757600080fd5b5061018061057f565b60405161018d9190611f4f565b60405180910390f35b3480156101a257600080fd5b506101bd60048036038101906101b89190611fd1565b6105a5565b005b3480156101cb57600080fd5b506101d4610b3d565b6040516101e19190612020565b60405180910390f35b3480156101f657600080fd5b506101ff610b43565b005b34801561020d57600080fd5b50610216610b55565b60405161022391906120f9565b60405180910390f35b34801561023857600080fd5b50610253600480360381019061024e919061211b565b610be3565b6040516102609190612020565b60405180910390f35b34801561027557600080fd5b50610290600480360381019061028b9190612148565b610bfb565b60405161029d9190611f4f565b60405180910390f35b3480156102b257600080fd5b506102bb610c3a565b6040516102c89190612190565b60405180910390f35b3480156102dd57600080fd5b506102e6610c51565b6040516102f39190612190565b60405180910390f35b34801561030857600080fd5b50610323600480360381019061031e919061211b565b610c64565b005b34801561033157600080fd5b5061033a6111e6565b005b34801561034857600080fd5b506103516111fa565b60405161035e9190612020565b60405180910390f35b34801561037357600080fd5b5061037c611200565b6040516103899190612020565b60405180910390f35b34801561039e57600080fd5b506103a761120a565b005b3480156103b557600080fd5b506103be61121c565b6040516103cb9190611f4f565b60405180910390f35b3480156103e057600080fd5b506103e9611245565b6040516103f69190611f4f565b60405180910390f35b34801561040b57600080fd5b5061041461126b565b6040516104219190612020565b60405180910390f35b34801561043657600080fd5b50610451600480360381019061044c919061211b565b611271565b005b34801561045f57600080fd5b5061047a6004803603810190610475919061211b565b61166d565b6040516104879190612190565b60405180910390f35b61049861168d565b005b3480156104a657600080fd5b506104af61172b565b6040516104bc9190612020565b60405180910390f35b3480156104d157600080fd5b506104ec60048036038101906104e7919061211b565b611731565b6040516104f99190612020565b60405180910390f35b34801561050e57600080fd5b506105296004803603810190610524919061211b565b61177a565b005b34801561053757600080fd5b50610552600480360381019061054d9190611fd1565b611800565b005b34801561056057600080fd5b5061056961190a565b6040516105769190612020565b60405180910390f35b600560009054906101000a900473ffffffffffffffffffffffffffffffffffffffff1681565b6105ad611910565b600073ffffffffffffffffffffffffffffffffffffffff168273ffffffffffffffffffffffffffffffffffffffff160361061c576040517f08c379a000000000000000000000000000000000000000000000000000000000815260040161061390612208565b60405180910390fd5b80600c60003373ffffffffffffffffffffffffffffffffffffffff1673ffffffffffffffffffffffffffffffffffffffff16815260200190815260200160002054101561069e576040517f08c379a000000000000000000000000000000000000000000000000000000000815260040161069590612274565b60405180910390fd5b80600c60003373ffffffffffffffffffffffffffffffffffffffff1673ffffffffffffffffffffffffffffffffffffffff16815260200190815260200160002060008282546106ed91906122c3565b9250508190555080600c60008473ffffffffffffffffffffffffffffffffffffffff1673ffffffffffffffffffffffffffffffffffffffff168152602001908152602001600020600082825461074391906122f7565b92505081905550600360008373ffffffffffffffffffffffffffffffffffffffff1673ffffffffffffffffffffffffffffffffffffffff16815260200190815260200160002060009054906101000a900460ff16610857576001600360008473ffffffffffffffffffffffffffffffffffffffff1673ffffffffffffffffffffffffffffffffffffffff16815260200190815260200160002060006101000a81548160ff021916908315150217905550600d829080600181540180825580915050600190039060005260206000200160009091909190916101000a81548173ffffffffffffffffffffffffffffffffffffffff021916908373ffffffffffffffffffffffffffffffffffffffff1602179055505b6000600c60003373ffffffffffffffffffffffffffffffffffffffff1673ffffffffffffffffffffffffffffffffffffffff168152602001908152602001600020541480156108ef5750600360003373ffffffffffffffffffffffffffffffffffffffff1673ffffffffffffffffffffffffffffffffffffffff16815260200190815260200160002060009054906101000a900460ff165b15610ad4576000600360003373ffffffffffffffffffffffffffffffffffffffff1673ffffffffffffffffffffffffffffffffffffffff16815260200190815260200160002060006101000a81548160ff02191690831515021790555060005b600d80549050811015610ad2573373ffffffffffffffffffffffffffffffffffffffff16600d82815481106109875761098661232b565b5b9060005260206000200160009054906101000a900473ffffffffffffffffffffffffffffffffffffffff1673ffffffffffffffffffffffffffffffffffffffff1603610ac557600d6001600d805490506109e191906122c3565b815481106109f2576109f161232b565b5b9060005260206000200160009054906101000a900473ffffffffffffffffffffffffffffffffffffffff16600d8281548110610a3157610a3061232b565b5b9060005260206000200160006101000a81548173ffffffffffffffffffffffffffffffffffffffff021916908373ffffffffffffffffffffffffffffffffffffffff160217905550600d805480610a8b57610a8a61235a565b5b6001900381819060005260206000200160006101000a81549073ffffffffffffffffffffffffffffffffffffffff02191690559055610ad2565b808060010191505061094f565b505b8173ffffffffffffffffffffffffffffffffffffffff163373ffffffffffffffffffffffffffffffffffffffff167f42a6cd1e9e876206646a9eacb9cf776e74ee2e827040df117f589968704cc7ed83604051610b319190612020565b60405180910390a35050565b60095481565b610b4b611951565b610b536119d8565b565b6060600d805480602002602001604051908101604052809291908181526020018280548015610bd957602002820191906000526020600020905b8160009054906101000a900473ffffffffffffffffffffffffffffffffffffffff1673ffffffffffffffffffffffffffffffffffffffff1681526020019060010190808311610b8f575b5050505050905090565b600c6020528060005260406000206000915090505481565b600d8181548110610c0b57600080fd5b906000526020600020016000915054906101000a900473ffffffffffffffffffffffffffffffffffffffff1681565b6000600260009054906101000a900460ff16905090565b600b60009054906101000a900460ff1681565b610c6c611a3b565b80600460009054906101000a900473ffffffffffffffffffffffffffffffffffffffff1673ffffffffffffffffffffffffffffffffffffffff168173ffffffffffffffffffffffffffffffffffffffff161480610d165750600560009054906101000a900473ffffffffffffffffffffffffffffffffffffffff1673ffffffffffffffffffffffffffffffffffffffff168173ffffffffffffffffffffffffffffffffffffffff16145b610d55576040517f08c379a0000000000000000000000000000000000000000000000000000000008152600401610d4c906123d5565b60405180910390fd5b610d5d611910565b6000600a5403610d98577fdbe55a939fbac3346557c522ce846e527e6b295240e4814821285eca797053fe60405160405180910390a16111da565b60008273ffffffffffffffffffffffffffffffffffffffff1663dd62ed3e33306040518363ffffffff1660e01b8152600401610dd59291906123f5565b602060405180830381865afa158015610df2573d6000803e3d6000fd5b505050506040513d601f19601f82011682018060405250810190610e169190612433565b905060008111610e5b576040517f08c379a0000000000000000000000000000000000000000000000000000000008152600401610e52906124ac565b60405180910390fd5b60008373ffffffffffffffffffffffffffffffffffffffff166370a08231336040518263ffffffff1660e01b8152600401610e969190611f4f565b602060405180830381865afa158015610eb3573d6000803e3d6000fd5b505050506040513d601f19601f82011682018060405250810190610ed79190612433565b905081811015610f1c576040517f08c379a0000000000000000000000000000000000000000000000000000000008152600401610f1390612518565b60405180910390fd5b6000600b60009054906101000a900460ff16610f3a57600654610f3e565b6007545b90506000816305f5e10085610f539190612538565b610f5d91906125a9565b90508060096000828254610f7191906122f7565b92505081905550610f8181611a81565b600b60009054906101000a900460ff1615610fea5760085460095410610fe9576000600b60006101000a81548160ff0219169083151502179055507f1eb1561f8507eb9bc6988331f66f369e75710f2b4b678ad5b4a52454b6636f5f60405160405180910390a15b5b6000600c60003373ffffffffffffffffffffffffffffffffffffffff1673ffffffffffffffffffffffffffffffffffffffff168152602001908152602001600020540361109557600d339080600181540180825580915050600190039060005260206000200160009091909190916101000a81548173ffffffffffffffffffffffffffffffffffffffff021916908373ffffffffffffffffffffffffffffffffffffffff1602179055505b80600c60003373ffffffffffffffffffffffffffffffffffffffff1673ffffffffffffffffffffffffffffffffffffffff16815260200190815260200160002060008282546110e491906122f7565b9250508190555080600a60008282546110fd91906122c3565b925050819055508573ffffffffffffffffffffffffffffffffffffffff166323b872dd3330876040518463ffffffff1660e01b8152600401611141939291906125da565b6020604051808303816000875af1158015611160573d6000803e3d6000fd5b505050506040513d601f19601f82011682018060405250810190611184919061263d565b503373ffffffffffffffffffffffffffffffffffffffff167f7494e309a68e673da9e1de3ae72425566aad3afb6b7ea7d70a590042a3a3864982866040516111cd92919061266a565b60405180910390a2505050505b506111e3611ac9565b50565b6111ee611951565b6111f86000611ad2565b565b60085481565b6000600a54905090565b611212611951565b61121a611b96565b565b60008060009054906101000a900473ffffffffffffffffffffffffffffffffffffffff16905090565b600460009054906101000a900473ffffffffffffffffffffffffffffffffffffffff1681565b600a5481565b611279611951565b611281611910565b6000600c60008373ffffffffffffffffffffffffffffffffffffffff1673ffffffffffffffffffffffffffffffffffffffff1681526020019081526020016000205411611303576040517f08c379a00000000000000000000000000000000000000000000000000000000081526004016112fa906126df565b60405180910390fd5b6000600c60008373ffffffffffffffffffffffffffffffffffffffff1673ffffffffffffffffffffffffffffffffffffffff1681526020019081526020016000205490506000600c60008473ffffffffffffffffffffffffffffffffffffffff1673ffffffffffffffffffffffffffffffffffffffff1681526020019081526020016000208190555080600c600061139961121c565b73ffffffffffffffffffffffffffffffffffffffff1673ffffffffffffffffffffffffffffffffffffffff16815260200190815260200160002060008282546113e291906122f7565b92505081905550600360008373ffffffffffffffffffffffffffffffffffffffff1673ffffffffffffffffffffffffffffffffffffffff16815260200190815260200160002060009054906101000a900460ff161561161b576000600360008473ffffffffffffffffffffffffffffffffffffffff1673ffffffffffffffffffffffffffffffffffffffff16815260200190815260200160002060006101000a81548160ff02191690831515021790555060005b600d80549050811015611619578273ffffffffffffffffffffffffffffffffffffffff16600d82815481106114ce576114cd61232b565b5b9060005260206000200160009054906101000a900473ffffffffffffffffffffffffffffffffffffffff1673ffffffffffffffffffffffffffffffffffffffff160361160c57600d6001600d8054905061152891906122c3565b815481106115395761153861232b565b5b9060005260206000200160009054906101000a900473ffffffffffffffffffffffffffffffffffffffff16600d82815481106115785761157761232b565b5b9060005260206000200160006101000a81548173ffffffffffffffffffffffffffffffffffffffff021916908373ffffffffffffffffffffffffffffffffffffffff160217905550600d8054806115d2576115d161235a565b5b6001900381819060005260206000200160006101000a81549073ffffffffffffffffffffffffffffffffffffffff02191690559055611619565b8080600101915050611496565b505b8173ffffffffffffffffffffffffffffffffffffffff167f7a330b35ffbc6fd8b0da421b39aa8f09c3344f166a1e5198235c449984ad2ee1826040516116619190612020565b60405180910390a25050565b60036020528060005260406000206000915054906101000a900460ff1681565b61169561121c565b73ffffffffffffffffffffffffffffffffffffffff166108fc349081150290604051600060405180830381858888f193505050501580156116da573d6000803e3d6000fd5b503373ffffffffffffffffffffffffffffffffffffffff167f0553260a2e46b0577270d8992db02d30856ca880144c72d6e9503760946aef13346040516117219190612020565b60405180910390a2565b60065481565b6000600c60008373ffffffffffffffffffffffffffffffffffffffff1673ffffffffffffffffffffffffffffffffffffffff168152602001908152602001600020549050919050565b611782611951565b600073ffffffffffffffffffffffffffffffffffffffff168173ffffffffffffffffffffffffffffffffffffffff16036117f45760006040517f1e4fbdf70000000000000000000000000000000000000000000000000000000081526004016117eb9190611f4f565b60405180910390fd5b6117fd81611ad2565b50565b611808611951565b611810611a3b565b808273ffffffffffffffffffffffffffffffffffffffff166370a08231306040518263ffffffff1660e01b815260040161184a9190611f4f565b602060405180830381865afa158015611867573d6000803e3d6000fd5b505050506040513d601f19601f8201168201806040525081019061188b9190612433565b10156118cc576040517f08c379a00000000000000000000000000000000000000000000000000000000081526004016118c39061274b565b60405180910390fd5b6118fe6118d761121c565b828473ffffffffffffffffffffffffffffffffffffffff16611bf99092919063ffffffff16565b611906611ac9565b5050565b60075481565b611918610c3a565b1561194f576040517fd93c066500000000000000000000000000000000000000000000000000000000815260040160405180910390fd5b565b611959611c78565b73ffffffffffffffffffffffffffffffffffffffff1661197761121c565b73ffffffffffffffffffffffffffffffffffffffff16146119d65761199a611c78565b6040517f118cdaa70000000000000000000000000000000000000000000000000000000081526004016119cd9190611f4f565b60405180910390fd5b565b6119e0611c80565b6000600260006101000a81548160ff0219169083151502179055507f5db9ee0a495bf2e6ff9c91a7834c1ba4fdd244a5e8aa4e537bd38aeae4b073aa611a24611c78565b604051611a319190611f4f565b60405180910390a1565b600260015403611a77576040517f3ee5aeb500000000000000000000000000000000000000000000000000000000815260040160405180910390fd5b6002600181905550565b600a54811115611ac6576040517f08c379a0000000000000000000000000000000000000000000000000000000008152600401611abd906127dd565b60405180910390fd5b50565b60018081905550565b60008060009054906101000a900473ffffffffffffffffffffffffffffffffffffffff169050816000806101000a81548173ffffffffffffffffffffffffffffffffffffffff021916908373ffffffffffffffffffffffffffffffffffffffff1602179055508173ffffffffffffffffffffffffffffffffffffffff168173ffffffffffffffffffffffffffffffffffffffff167f8be0079c531659141344cd1fd0a4f28419497f9722a3daafe3b4186f6b6457e060405160405180910390a35050565b611b9e611910565b6001600260006101000a81548160ff0219169083151502179055507f62e78cea01bee320cd4e420270b5ea74000d11b0c9f74754ebdbfc544b05a258611be2611c78565b604051611bef9190611f4f565b60405180910390a1565b611c73838473ffffffffffffffffffffffffffffffffffffffff1663a9059cbb8585604051602401611c2c9291906127fd565b604051602081830303815290604052915060e01b6020820180517bffffffffffffffffffffffffffffffffffffffffffffffffffffffff8381831617835250505050611cc0565b505050565b600033905090565b611c88610c3a565b611cbe576040517f8dfc202b00000000000000000000000000000000000000000000000000000000815260040160405180910390fd5b565b6000611ceb828473ffffffffffffffffffffffffffffffffffffffff16611d5790919063ffffffff16565b90506000815114158015611d10575080806020019051810190611d0e919061263d565b155b15611d5257826040517f5274afe7000000000000000000000000000000000000000000000000000000008152600401611d499190611f4f565b60405180910390fd5b505050565b6060611d6583836000611d6d565b905092915050565b606081471015611db457306040517fcd786059000000000000000000000000000000000000000000000000000000008152600401611dab9190611f4f565b60405180910390fd5b6000808573ffffffffffffffffffffffffffffffffffffffff168486604051611ddd9190612897565b60006040518083038185875af1925050503d8060008114611e1a576040519150601f19603f3d011682016040523d82523d6000602084013e611e1f565b606091505b5091509150611e2f868383611e3a565b925050509392505050565b606082611e4f57611e4a82611ec9565b611ec1565b60008251148015611e77575060008473ffffffffffffffffffffffffffffffffffffffff163b145b15611eb957836040517f9996b315000000000000000000000000000000000000000000000000000000008152600401611eb09190611f4f565b60405180910390fd5b819050611ec2565b5b9392505050565b600081511115611edc5780518082602001fd5b6040517f1425ea4200000000000000000000000000000000000000000000000000000000815260040160405180910390fd5b600073ffffffffffffffffffffffffffffffffffffffff82169050919050565b6000611f3982611f0e565b9050919050565b611f4981611f2e565b82525050565b6000602082019050611f646000830184611f40565b92915050565b600080fd5b611f7881611f2e565b8114611f8357600080fd5b50565b600081359050611f9581611f6f565b92915050565b6000819050919050565b611fae81611f9b565b8114611fb957600080fd5b50565b600081359050611fcb81611fa5565b92915050565b60008060408385031215611fe857611fe7611f6a565b5b6000611ff685828601611f86565b925050602061200785828601611fbc565b9150509250929050565b61201a81611f9b565b82525050565b60006020820190506120356000830184612011565b92915050565b600081519050919050565b600082825260208201905092915050565b6000819050602082019050919050565b61207081611f2e565b82525050565b60006120828383612067565b60208301905092915050565b6000602082019050919050565b60006120a68261203b565b6120b08185612046565b93506120bb83612057565b8060005b838110156120ec5781516120d38882612076565b97506120de8361208e565b9250506001810190506120bf565b5085935050505092915050565b60006020820190508181036000830152612113818461209b565b905092915050565b60006020828403121561213157612130611f6a565b5b600061213f84828501611f86565b91505092915050565b60006020828403121561215e5761215d611f6a565b5b600061216c84828501611fbc565b91505092915050565b60008115159050919050565b61218a81612175565b82525050565b60006020820190506121a56000830184612181565b92915050565b600082825260208201905092915050565b7f43616e6e6f74207472616e7366657220746f207a65726f206164647265737300600082015250565b60006121f2601f836121ab565b91506121fd826121bc565b602082019050919050565b60006020820190508181036000830152612221816121e5565b9050919050565b7f496e73756666696369656e742073686172657300000000000000000000000000600082015250565b600061225e6013836121ab565b915061226982612228565b602082019050919050565b6000602082019050818103600083015261228d81612251565b9050919050565b7f4e487b7100000000000000000000000000000000000000000000000000000000600052601160045260246000fd5b60006122ce82611f9b565b91506122d983611f9b565b92508282039050818111156122f1576122f0612294565b5b92915050565b600061230282611f9b565b915061230d83611f9b565b925082820190508082111561232557612324612294565b5b92915050565b7f4e487b7100000000000000000000000000000000000000000000000000000000600052603260045260246000fd5b7f4e487b7100000000000000000000000000000000000000000000000000000000600052603160045260246000fd5b7f496e76616c696420746f6b656e20616464726573730000000000000000000000600082015250565b60006123bf6015836121ab565b91506123ca82612389565b602082019050919050565b600060208201905081810360008301526123ee816123b2565b9050919050565b600060408201905061240a6000830185611f40565b6124176020830184611f40565b9392505050565b60008151905061242d81611fa5565b92915050565b60006020828403121561244957612448611f6a565b5b60006124578482850161241e565b91505092915050565b7f416d6f756e74206d7573742062652067726561746572207468616e207a65726f600082015250565b60006124966020836121ab565b91506124a182612460565b602082019050919050565b600060208201905081810360008301526124c581612489565b9050919050565b7f496e73756666696369656e7420746f6b656e2062616c616e6365000000000000600082015250565b6000612502601a836121ab565b915061250d826124cc565b602082019050919050565b60006020820190508181036000830152612531816124f5565b9050919050565b600061254382611f9b565b915061254e83611f9b565b925082820261255c81611f9b565b9150828204841483151761257357612572612294565b5b5092915050565b7f4e487b7100000000000000000000000000000000000000000000000000000000600052601260045260246000fd5b60006125b482611f9b565b91506125bf83611f9b565b9250826125cf576125ce61257a565b5b828204905092915050565b60006060820190506125ef6000830186611f40565b6125fc6020830185611f40565b6126096040830184612011565b949350505050565b61261a81612175565b811461262557600080fd5b50565b60008151905061263781612611565b92915050565b60006020828403121561265357612652611f6a565b5b600061266184828501612628565b91505092915050565b600060408201905061267f6000830185612011565b61268c6020830184612011565b9392505050565b7f4e6f2073686172657320746f207365697a650000000000000000000000000000600082015250565b60006126c96012836121ab565b91506126d482612693565b602082019050919050565b600060208201905081810360008301526126f8816126bc565b9050919050565b7f496e73756666696369656e742062616c616e6365000000000000000000000000600082015250565b60006127356014836121ab565b9150612740826126ff565b602082019050919050565b6000602082019050818103600083015261276481612728565b9050919050565b7f507572636861736520776f756c642065786365656420617661696c61626c652060008201527f7368617265730000000000000000000000000000000000000000000000000000602082015250565b60006127c76026836121ab565b91506127d28261276b565b604082019050919050565b600060208201905081810360008301526127f6816127ba565b9050919050565b60006040820190506128126000830185611f40565b61281f6020830184612011565b9392505050565b600081519050919050565b600081905092915050565b60005b8381101561285a57808201518184015260208101905061283f565b60008484015250505050565b600061287182612826565b61287b8185612831565b935061288b81856020860161283c565b80840191505092915050565b60006128a38284612866565b91508190509291505056fea2646970667358221220a4c4023026e5d2d9bb13a679f3fc6d1d4f9c698eb45549ee481ae8265724c3cb64736f6c63430008180033",
  "linkReferences": {},
  "deployedLinkReferences": {}
}